:020000040000FA
:1070000060350020F171000081A2000083A2000021
:107010000000000000000000000000000000000070
:1070200000000000000000000000000085A2000039
:10703000000000000000000087A2000089A20000FC
:1070400091A2000093A2000095A200009FA2000060
:10705000A9A20000ABA20000ADA20000AFA20000F8
:10706000B1A20000B3A20000B5A20000B7A20000C8
:10707000B9A20000C1A20000C3A20000C5A2000086
:10708000C7A20000C9A20000CBA20000CDA2000050
:10709000CFA20000D1A2000003720000D3A2000022
:1070A000D5A20000D7A2000000F002F800F059F8C5
:1070B0000CA030C8083824182D18A246671EAB460D
:1070C00054465D46AC4201D100F04BF87E460F3E7F
:1070D0000FCCB6460126334200D0FB1AA246AB467F
:1070E00033431847D0A50000F0A50000002300247A
:1070F00000250026103A01D378C1FBD8520700D3EF
:1071000030C100D50B60704710B5642902D108F07A
:1071100071FB10BD752902D108F06CFB10BD7829F8
:1071200002D108F09DFB10BD632902D109F02CFCAF
:1071300010BD732902D109F02FFC10BD002010BD35
:107140001FB5C046C04608F0E3FD09F095FB0400FA
:107150000020002109F09EFF401C60601FBD10B59B
:1071600010BD09F033FF1146FFF7EAFF03F0C5FC3D
:1071700009F04BFF03B4FFF7F2FF03BC03F0C3F8C1
:1071800030B40C490C684A6823681068C018106055
:10719000241D121D8C4207D28A4208D20C604A601C
:1071A00030BC4000400870470C00DC3CF6E70A00A9
:1071B000DC3AF3E7F428002070B505460C46164685
:1071C00002E00FCC0FC5103E102EFAD2082E02D3CB
:1071D00003CC03C5083E042E07D301CC01C5361FDE
:1071E00003E021782970641C6D1C761EF9D270BDF5
:1071F0000748804707480047FEE7FEE7FEE7FEE74F
:10720000FEE7FEE704480549054A064B70470000C3
:107210003B720000A970000060290020603500204A
:10722000602D0020602D00203648006870473548EA
:10723000406870473448006A704710B53348816B26
:10724000334A1161C16B30484160002101624169DC
:107250008907CA0F012191404269D207D20F91409C
:10726000CAB2416940698904890E51438002294AA2
:10727000800E504308F041FF2249086010BDF8B568
:10728000254F0126204D01280FD000202862214CD7
:107290001046214608F031FFC0B2012808D8EE613F
:1072A0006F6101210A46134619E02E620C46EFE792
:1072B0000021E961FF2101318006800A08436861ED
:1072C00068698007C00F86406869C007C00F8640A4
:1072D0006869F2B28004810E68698002830E2046DC
:1072E000084C51436060584308F007FF2060F8BD28
:1072F00030B4064B9C6B064D2C61DB6B024C63601B
:1073000030BCBCE7000000200010004180FD0300FD
:107310000012004100127A0000010200412109061A
:10732000002801D0032000E00120086070474121BF
:1073300009064860704701204121090688607047AE
:1073400041200006C06880B270474121090600282C
:1073500000D0022008617047412000060069000645
:10736000000E00D00120704701204121090608616C
:1073700070470020D2E700B50120FFF7CFFF0020C3
:10738000FFF7E3FF00BD00003F4A3F4B0121803281
:10739000984201D1116070473B4B2033984201D194
:1073A00011627047394A394B80329842F2D0374BDC
:1073B00020339842F4D07047334A334B0121C943FC
:1073C0008032984201D1116070472F4B2033984290
:1073D00001D1116270472D4A2C4B80329842F2D075
:1073E0002A4B20339842F4D0704781688022914321
:1073F0008160704781688022914381600021016033
:107400002022826081617047826880239A43826073
:107410000A68026082684B689B0113438A68920085
:107420001A43CB6809695B0013431943EF221140EB
:107430008160704720220129816802D091438160D8
:1074400070471143FBE70121C16070474069C0B23A
:10745000704780688006C00F7047816880221143A2
:1074600081607047006870470160704740687047EE
:107470008068704781607047006970474069704755
:107480008069704781617047001000400020004013
:1074900070B51024002101604160BF4A4261426220
:1074A0008162426321225206904202D1BB4BBC4A08
:1074B0000CE043221206904204D1B84BB84A403344
:1074C000403203E0B54BB64A80338032002060265C
:1074D00085005E515151401CA042F9D370BDF0B5FA
:1074E0002122002310265206904201D1AB4A08E027
:1074F00043221206904202D1A84A403201E0A74A34
:107500008032012425460F689D402F40AF4243D171
:107510000F79012F0DD045614D79AD070DD59C0038
:107520001559AD08AD001551155902273D431551A8
:107530000BE007692F430761EEE79D005759BF082D
:10754000BF0057515759274357514C79640704D509
:107550009C00155904273D4303E09C00155904275E
:10756000BD4315514C79A40604D59C00155920271C
:107570003D4303E09C0015592027BD4315514C792C
:10758000640604D59C00155940273D4303E09C0048
:1075900015594027BD4315515B1CB342B1D3F0BD13
:1075A0007D490160002101716221417170470246ED
:1075B000126800200A4200D001207047006880B2A3
:1075C00070470246526800200A4200D001207047EE
:1075D000406880B270470A06920D012312189B0280
:1075E000D21811600A0A920010185A00801801601F
:1075F000704710B50B069B0D0124CA431B18A4024B
:107600001B191A60090A89000818610040180260F5
:1076100010BD10B50B069B0D01241B18A4021B19ED
:107620001A60090A8900081861004018026010BD3C
:1076300041607047836A0B438362012A03D0426A28
:107640000A4342627047026A0A4302627047524A22
:107650008262012901D04262704702627047012AAA
:1076600003D0426B0A4342637047026B0A430263D2
:107670007047494A012901D042637047026370474D
:107680004549816370470246926B00200A4200D050
:1076900001207047F0B50126414D002334469C403F
:1076A0000C420ED0002810D0012811D03C4C9F0075
:1076B00080343C192768BF08BF002760276817433C
:1076C00027605B1C102BE9DBF0BD9C006419F1E71F
:1076D0009C006419276CBF08BF002764276C174300
:1076E0002764EEE77CB504461E460D466846FFF764
:1076F00057FF68460095027169462046FFF7EFFE86
:1077000021204006844201D1002006E043200006EB
:10771000844201D1012000E0022032462946FFF7D1
:10772000B9FF7CBD7CB5044616460D466846FFF79A
:1077300037FF00206946009508712046FFF7CFFE0D
:10774000206A28432062A06A2843A0623246294664
:107750002046FFF784FF21204006124E844206D1C6
:10776000002001222946FFF795FF802012E04320E8
:107770000006844207D1012002462946FFF78AFF0E
:10778000FF20013006E0022001222946FFF782FF98
:107790000120400230607CBDFFFF0000003000414E
:1077A0000020004100E100E0E12149020160602188
:1077B00081800021C18003220181120242818181E6
:1077C00070477047F8B50446006B0E46400840000D
:1077D0002063FFF72FFD8B4F0125002846D03D6128
:1077E000FFF722FD7A692946914008F086FC07469A
:1077F0003068000109F01AF80090384609F016F8D0
:10780000009908F01FFF074608F0CCFF009009F030
:107810000DF8394609F09AFC062109F00BF808F03A
:10782000E7FE0022784B08F095FE08F0BFFE014607
:1078300000986062A162E06AEE218843B188F28814
:10784000114332890243E06A11430843E062206B2E
:107850006E49B2890840718911430143206B084386
:107860002063206B284320630020F8BD022038618C
:107870007869294681406648B7E710B5C36A102485
:107880002343C3624907890E5207520F11434163D4
:1078900010BDC16A10229143C162704701607047F8
:1078A000006880B27047C16A01221143C16270470B
:1078B0000246526800200A4200D001207047416011
:1078C00070470246926900200A4200D001207047AA
:1078D000002A03D0826B0A4382637047426C0A43DA
:1078E000426470470246126C00200A4200D0012018
:1078F0007047426C0A4342647047704710B50446B3
:107900004448016B02290AD0006B032807D0FFF717
:107910008BFC214608F0F1FB3F49086110BDFFF7E1
:1079200086FCF6E710B5FFF7E9FF3B4988680322BC
:107930008008800010438860002010BD36494A68E6
:10794000D207FCD1086070473348006880B27047A6
:10795000314A0146526800200A4200D00120704797
:107960002D4A0029916801D0014300E081439160D4
:107970007047294A0029916801D0014300E0814302
:1079800091607047244A0146D26800200A4200D024
:10799000012070472049CA680243CA6070470160ED
:1079A00082691207FCD40846704730B50B4605467D
:1079B0001C78002C03D021462846FFF7F0FF5B1C03
:1079C000002CF5D130BD8169C906FCD40068C0B275
:1079D000704700B50346FFF7B1FF184600BD10B56C
:1079E00003461C78002C02D02046FFF7A7FF5B1C43
:1079F000002CF6D110BD084841688907FCD5006805
:107A0000C0B27047401100410000E03FFE3CFFFF64
:107A100000127A00001000410060004000787047BA
:107A20000170704730B5002405E00D19ADB2455D19
:107A30001555641CA4B29C42F7D330BD70B5002428
:107A400005E00E19155DB6B28555641CA4B29C42C2
:107A5000F7D370BD70B514000FD01A4A83049E1876
:107A6000F268400795B2184AC00A10430A462346F6
:107A70002946FFF7E3FF2819F06070BD70B51400C8
:107A80000FD0104A83049E18B26A400795B20F4A7D
:107A9000C00A10430A4623462946FFF7C3FF2819A8
:107AA000B06270BD10B500290BD0064A83049B1844
:107AB0009A6A4007054CC00A5118204389B2081839
:107AC000986210BD00020146000002460000034615
:107AD00070B50446082802D90020C04370BDFA489A
:107AE000A604301805461021FFF79AFF2846FFF735
:107AF00095FF0028FAD1F4481F2118303018FFF7FD
:107B00008FFFF24801218288A1408A438280F04A97
:107B1000002061005052ED49891D0855EA48203087
:107B200034182046FFF77AFF0028FAD1012070BDF3
:107B3000F8B51C4616460F460546082802D900200F
:107B4000C043F8BD012F06D0022F04D0042F02D06D
:107B50000420C043F8BD6007810FDE48FAD1002C35
:107B60000CD0012F02D0022F08D103E021210C42BA
:107B7000F0D003E0A10601D52106EBD52846FFF79A
:107B8000A7FF21090901D0483943AF04103838183C
:107B9000FFF746FF002E0AD1CC48CF4A0688711C59
:107BA00089B20180914202D1032189030180C64834
:107BB000F03038184661C448012138180646FFF7EE
:107BC0002FFF3046FFF72AFF0028FAD1BF48E10710
:107BD000C90F4288A9401143418001218288A940F0
:107BE0008A438280BA4A002069005052B749891DF1
:107BF0004855B54820303C182046FFF70FFF0028B5
:107C0000FAD068B2F8BD70B50646082802D900203F
:107C1000C04370BDAC48B40410382018FFF7FEFE16
:107C20000007000F012802D00420C04370BDA64801
:107C3000203020180546FFF7F1FE132802D002205D
:107C4000C04370BDA048022120180446FFF7E8FE9B
:107C50002046FFF7E3FE0028FAD12846FFF7DEFEB4
:107C6000142805D03046FFF733FF0320C04370BD12
:107C7000012070BDF7B50D460746082802D900203F
:107C8000C043FEBD9048BC0410382018FFF7C6FE64
:107C90000007000F012802D00420C043FEBD8A481F
:107CA000203020180646FFF7B9FE132802D0022024
:107CB000C043FEBD29786A7808028018AA780002BD
:107CC0008018EA7800028018421C32D0002830D098
:107CD0000298002830D081482018FFF7A1FE7F4885
:107CE0006978401E2018FFF79BFE7C48A978801E0B
:107CF0002018FFF795FE7948E978C01E2018FFF795
:107D00008FFE764902982739611808626E4804216F
:107D100020180546FFF784FE2846FFF77FFE00285F
:107D2000FAD16A4901204988B84008421CD0002095
:107D3000FEBD0B20C043FEBD0A20C043FEBD284649
:107D4000FFF76CFE000708D55F480821183020189F
:107D5000FFF766FE0C20C043FEBD3046FFF75EFE17
:107D6000002804D1001FFEBD5748103025183046AA
:107D7000FFF754FE1728E2D10120FEBD70B506467C
:107D8000082802D90020C04370BD4F48B504103800
:107D90002818FFF743FE0007000F012802D0042037
:107DA000C04370BD4848082128180446FFF738FE34
:107DB0002046FFF733FE0028FAD1444901208A8883
:107DC000B04082438A80498808420CD0002070BDB0
:107DD0002046FFF723FE00070BD53046FFF778FE5D
:107DE0000C20C04370BD384810302C183648203065
:107DF0002D182846FFF712FE0028E9D1012070BD9A
:107E0000F7B582B002981446082803D90020C04371
:107E100005B0F0BD86042C4810383018FFF7FEFD81
:107E20000007000F012802D00420C043F0E7002C17
:107E30000CD02548203030180190FFF7EFFD1728AF
:107E400007D01C2805D00620C043E1E70D20C04321
:107E5000DEE7029801251D4F8540B888054211D004
:107E6000194810303018FFF7D9FDC006C00EC10602
:107E700021D51548102118303018FFF7D1FDB888EA
:107E8000A843B8801548D93030180090FFF7C6FDD8
:107E90008006000C844200D904460098406887B2EE
:107EA0000198FFF7BBFD17281AD01C2818D002989C
:107EB000FFF70EFEC7E7000718D50298FFF708FE88
:107EC0000C20C043A4E70000100001460800002079
:107ED0000C030020FAFFFFFFF0FF0000270101461E
:107EE000FE484088054203D0BC4201D900208FE7FC
:107EF000BC42D2D8224603990298FFF7ABFDF8485E
:107F0000202130180646FFF78BFD3046FFF786FD2F
:107F10000028FAD1F14881880D438580204677E713
:107F2000F7B582B002981446082802D90020C04351
:107F30006EE78704EA4810383818FFF76FFD00072E
:107F4000000F012802D00420C04361E7002C19D0A3
:107F5000E4483818FFF762FD8006000CA04200D20A
:107F60000446DF48203038180090DE4820383E189C
:107F7000706A85B20098FFF751FD172815D01C28AC
:107F800003D00CE00D20C04342E7002D1AD130464B
:107F9000FFF744FD7168800289B2884205D10298DA
:107FA000FFF796FD0620C04332E702990120884082
:107FB000CA494988084203D0002D03D1002027E791
:107FC000002DD5D0A54200D22C4622460399029816
:107FD000FFF754FDC248402138180546FFF720FD41
:107FE0002846FFF71BFD0028FAD1204610E7FFB511
:107FF00083B003981E461546082803D90020C043C5
:1080000007B0F0BD8404B64810382018FFF706FD0D
:108010000007000F022804D0042802D00420C04327
:10802000EEE7002D1DD03078717800024018B1784D
:1080300000024018F1780002C84202D10B20C04370
:10804000DEE70C9800280FD0A548203020180746FE
:10805000FFF7E4FC42280AD0222808D00620C043BB
:10806000CEE70D20C043CBE70A20C043C8E79D48B8
:108070003178F9382018FFF7D3FC9A487178FA382C
:108080002018FFF7CDFC9748B178FB382018FFF790
:10809000C7FC9448F178FC382018FFF7C1FC9049E0
:1080A0000C98F031611808628E4820382018019031
:1080B000FFF7B4FC8006000C854200D90546039901
:1080C0000120884000900198406886B23846FFF74A
:1080D000A5FC002808D0814900984988084206D0AC
:1080E000B54204D900208BE70320C04388E7B5429E
:1080F000E9D82A4604990398FFF7ACFC7848202178
:1081000020180746FFF78CFC7548183026183846AB
:10811000FFF784FC0028FAD171481030241820465B
:10812000FFF77CFCC006C00EC10605D53046102105
:10813000FFF776FC284663E70007F0D530460821B4
:10814000FFF76EFC0C20C0435AE7FFB5002485B052
:108150000646082802D9601E09B0F0BD6048B50483
:1081600010382818FFF75AFC04900007000F022867
:1081700004D0042802D00420C043EDE7079800286B
:1081800005D059487700C05B002803D022E00D20BD
:10819000C043E1E753482038281803905048203066
:1081A00028180125B54002900398406A84B20298CD
:1081B000FFF734FC002806D048484088054207D025
:1081C000002C03D006E00320C043C5E70020C3E72E
:1081D000002CE9D041480021801D81550498B2044B
:1081E00041073F48490F151802291FD0042957D0CD
:1081F00021463046FFF756FC3B48C45328464021F1
:10820000FFF70EFC2846FFF709FC0028FAD1364894
:10821000C15B091B0904090CC15305D02F48012279
:10822000801D815D11438155204695E72E4CE05B12
:10823000002865D1082269463046FFF71FFC284612
:108240004021FFF7EDFB2846FFF7E8FB0028FAD1B5
:10825000684601780898017068464178089841702E
:1082600068468178089881706846C1780898C1701E
:1082700068460E990079088001026846407908181E
:108280000E9908806846807901026846C07908180E
:10829000E05332E0224630460699FFF7EFFBADE7A8
:1082A000114CE05B00282BD1022269463046FFF7D3
:1082B000E5FB28464021FFF7B3FB2846FFF7AEFB5E
:1082C0000028FAD16846007801026846407808180C
:1082D00080B20649E05388420FD909E00800002027
:1082E00010000146200201460C030020EA050000B0
:1082F0003046FFF7EDFB9E482EE79E4980208855CB
:10830000E45B07988442C5D90446C3E7F8B5144630
:108310000646082802D90020C043F8BD954B964870
:108320009B1F0927B2045D88FF4310180B0008F05B
:108330009DFE0805171B1D252E3731402178012091
:10834000B040012902D0002905D032E08949891FB7
:10835000284348802BE08749891F85434D8026E0CC
:10836000F540E807C00F19E0844801E08348203059
:108370001018FFF753FB8002208018E020781F2898
:1083800017D8C1067C48C90E001D10180DE07A48A8
:10839000001F1018FFF742FBC006C00E207006E059
:1083A00021781F2905D8C906C90EFFF739FB01201E
:1083B000F8BD3846F8BDF8B51546082802D90020A2
:1083C000C043F8BD84046D4B6B4A6B48803BDC3284
:1083D00024380427E618A2182018FF430B0008F0E1
:1083E00045FE084F050910421316444F624829788C
:1083F000E43002E060482978E0302018FFF710FBF5
:1084000031E0288810612EE0288810622BE0FFF709
:1084100005FB0007000F01282DD13046FFF7FEFABB
:10842000002802D00120C043F8BD5348222114384F
:1084300020180546FFF7F4FA4F48001F26180DE0F4
:108440003046FFF7EBFA000708D54B480821001D1E
:108450002018FFF7E5FA0C20C043F8BD2846FFF7C7
:10846000DDFA0028ECD10120F8BDFFF7D7FA0007AC
:10847000000F012801D03846F8BD29783046BDE705
:108480000920C043F8BDF8B514460646082802D9AD
:108490000020C043F8BDB5043748374A374B24386D
:1084A000DC32EF182818AA180B0008F0DFFD0D08C1
:1084B0000D121517305E323E404248525E00FFF703
:1084C000ADFA0009000102E02B48E43033E02070EF
:1084D0003DE02948E0302EE01069F8E72748D93818
:1084E0002818FFF79BFA20702448DA382818FFF77D
:1084F00095FA60702148DB382818FFF78FFAA070D2
:108500001E48DC382818FFF789FAE0701FE0106A6F
:108510001CE0FFF783FA0007000F01281FD117485E
:1085200080382818FFF77AFA10E078680EE0786A49
:108530000CE011480C302818FFF770FAC7E7FFF776
:108540006DFA0128F3D00E497000085A20800120EE
:10855000F8BDFFF763FA0007000F012802D00420DE
:10856000C043F8BD0348805DB1E70120C043F8BDBA
:1085700017FCFFFF0E000020240001460002014608
:108580000C030020704770477047704700787047B1
:1085900001707047002070477047FE4A002804D0E1
:1085A000002902D0D16090607047FB489060FB4882
:1085B000D0607047F74A002804D0002902D05161EA
:1085C00010617047F6481061F6485061704710B569
:1085D000F04A1388DC05FDD5002804D0002902D01C
:1085E000D161906110BDF0489061F048D06110BD3C
:1085F00010B5E84A13889C05FDD5002804D0002951
:1086000002D0D161906110BDE9489061E948D06124
:1086100010BD0020C04370470020C043704710B514
:10862000E548FFF7FBF90446E3481030FFF7F6F999
:108630000002001980B210BD10B5C1B2040A0909C8
:108640000901DD48FFF7ECF9DB4821461030FFF760
:10865000E7F910BDD84810B5001FFFF7DFF9044651
:10866000D5480C30FFF7DAF90002001980B210BDCE
:1086700010B5C1B2040AD04809090901001DFFF76D
:10868000CFF9CD4821460C30FFF7CAF910BDF0B53F
:1086900093B0CA48FFF7C2F91190C848401EFFF7CF
:1086A000BDF9C64C1090A41E2046FFF7B7F9651E11
:1086B0000F902846FFF7B2F90E90A01DFFF7AEF914
:1086C0000D90601DFFF7AAF90C90BC480830FFF729
:1086D000A5F90B90B948C01DFFF7A0F9B74E0A9055
:1086E000B61D3046FFF79AF90990E01DFFF796F99D
:1086F0000890B01DFFF792F90790701DFFF78EF9F3
:108700000690301DFFF78AF90590F01CFFF786F9F7
:108710000490AA481030FFF781F9A84F03900F3753
:108720003846FFF77BF90290781EFFF777F9019042
:10873000F01DFFF773F900908021A148FFF770F951
:108740009F48FFF76BF9A01C1199FFF769F9601CAE
:108750001099FFF765F920460F99FFF761F9284650
:108760000E99FFF75DF9A01D0D99FFF759F9601DEE
:108770000C99FFF755F9B01C0B99FFF751F9701CD4
:108780000A99FFF74DF930460999FFF749F9E01DBD
:108790000899FFF745F9B01D0799FFF741F9701DDA
:1087A0000699FFF73DF9301D0599FFF739F9F01CDF
:1087B0000499FFF735F9781C0399FFF731F938462A
:1087C0000299FFF72DF9781E0199FFF729F9F01D9D
:1087D0000099FFF725F913B0F0BDF8B50D46064630
:1087E0000024FFF754FF002E14D00022B05C521C6E
:1087F000001952B244B2082AF8DB102C17DC714F72
:108800000024A004315DC019FFF70AF9641C64B2AA
:10881000082CF6DB002D19D0002108462A5C401CEC
:10882000511840B249B20828F8DB102902DD0020B7
:10883000C043F8BD634E00242036A004295D801992
:10884000FFF7EEF8641C64B2082CF6DB0020F8BDDC
:1088500070B50C460246002108464D1E130008F074
:1088600005FC0906091511181C2E2E202E00FFF7F5
:108870000EFF22E0002C02D0214620460831FFF7EF
:10888000ACFF70BD2088FFF7F3FE16E0FFF7E2FEB5
:1088900005E02088FFF7D0FE0FE0FFF7C0FE208044
:1088A0000BE03C4882782270C27862700279A27034
:1088B0004279E270807920716171002070BD284694
:1088C00070BD10B504463D484130FFF7A7F8207051
:1088D0003A483D300068608010BD10B5044601780C
:1088E00036484130FFF79CF8344960883D310860D4
:1088F00010BD10B53248FFF791F810BD70B50446B1
:10890000C720044202D00020C04370BD2C4D284631
:10891000FFF784F8204301462846FFF781F800203E
:1089200070BD10B504462548FFF778F8207023483D
:10893000401EFFF773F860702048801EFFF76EF846
:10894000A0701E48C01EFFF769F8E0701B48001DAC
:10895000FFF764F820711948C01CFFF75FF86071D9
:1089600016480830FFF75AF8A0731448C01DFFF7E7
:1089700055F8E0731148801DFFF750F820740F4838
:10898000401DFFF74BF860740C480C30FFF746F8B9
:10899000A07219E020000020858500008785000076
:1089A000898500008B8500008D8500009185000081
:1089B000958500009985000004210046036000466B
:1089C00000230046000201465F480B30FFF726F8FF
:1089D000E0725D480A30FFF721F820735A480930E9
:1089E000FFF71CF8607358481030FFF717F8A071B4
:1089F00055480F30FFF712F8E07153480E30FFF77B
:108A00000DF8207250480D30FFF708F860724F489B
:108A10000178A1744178E17481782175C07860751E
:108A20004A48401E0078A07510BD10B50446017874
:108A30004548FEF7F5FF44486178401EFEF7F0FF19
:108A40004148A178801EFEF7EBFF3F48E178C01E49
:108A5000FEF7E6FF3C482179001DFEF7E1FF3A48AA
:108A60006179C01CFEF7DCFF3748A17B0830FEF7B8
:108A7000D7FF3548E17BC01DFEF7D2FF3248217C8D
:108A8000801DFEF7CDFF3048617C401DFEF7C8FF1A
:108A90002D48A17A0C30FEF7C3FF2B48E17A0B304A
:108AA000FEF7BEFF2848217B0A30FEF7B9FF2648B3
:108AB000617B0930FEF7B4FF2348A1791030FEF73F
:108AC000AFFF2148E1790F30FEF7AAFF1E48217A57
:108AD0000E30FEF7A5FF1C48617A0D30FEF7A0FFAF
:108AE0001A48A17C0170E17C4170217D8170617D1B
:108AF000C1701649A07D491E087010BD10B50C4606
:108B0000030008F0B3FA0604080C1014181D0846F8
:108B1000FFF78BFF12E00846FFF703FF0EE008782F
:108B2000FFF7ECFE10BDFFF7E4FE207006E00846FC
:108B3000FFF7D3FE02E00846FFF7C3FE002010BD9A
:108B40000020C04310BD0000036000461900002053
:108B500070B58F4C05462088286161882846FEF74D
:108B60003AFD012002F04FF861882846FEF741FDEA
:108B7000012002F048F870BDF8B507460020844D8A
:108B80000446460069883846FEF725FD012002F0BC
:108B90003AF869883846FEF72CFD012002F033F8D8
:108BA00029883846FEF703FD3043641C102CE8D3B7
:108BB000F8BD70B5764C054620886861012002F04A
:108BC00022F861882846FEF706FD012002F01BF816
:108BD00061882846FEF70DFD012002F014F870BDF3
:108BE000F8B5074616462020801B81400C46684D8C
:108BF00018E02988002C384602DAFEF7ECFC01E088
:108C0000FEF7F7FC012001F0FEFF69883846FEF709
:108C1000E2FC012001F0F7FF69883846FEF7E9FC25
:108C20006400761E002EE4D1F8BD70B50C4600211C
:108C300005462022C943FFF7D3FF04220621284618
:108C4000FFF7CEFF5248052241682846FFF7C8FFCC
:108C5000052221462846FFF7C3FF2846FFF7A9FF54
:108C60002846FFF789FF04462846FFF771FF204694
:108C700070BD10B5432001210006FFF7D6FF400765
:108C8000C00F10BD70B50C461646002105462022C7
:108C9000C943FFF7A5FF042205212846FFF7A0FFDF
:108CA0003B48052241682846FFF79AFF05222146E6
:108CB0002846FFF795FF022211462846FFF790FF4E
:108CC000102231462846FFF78BFF2846FFF740FF6A
:108CD00070BD01221203904203D0212109020840F5
:108CE0000246002143200006CCE7F8B54326294F71
:108CF0003606002400212022C9433046FFF770FFCA
:108D0000042206213046FFF76BFF0522214630463C
:108D1000FFF766FF052201213046FFF761FF30466D
:108D2000FFF747FF3046FFF727FF05463046FFF7BE
:108D30000FFF002D03D0BD4201D02046F8BD641CBA
:108D4000082CD7DD14A006F0E1FCD2E77CB505467F
:108D500014460E466846FEF723FC3046204300903A
:108D60000120694608712846FEF7B9FB0122214619
:108D70001046FEF78FFC012231461046FEF78AFCB2
:108D8000034D6E802C80FFF7B0FF68607CBD000053
:108D900040000020FFFF00000D0A70687920696420
:108DA00020646574656374206572726F7221210D91
:108DB0000A00000010B5FE4CFE482178FEF730FE98
:108DC000FC486178401EFEF72BFEFA48A178801E11
:108DD000FEF726FEF748E178C01EFEF721FEF548B3
:108DE00008342178001FFEF71BFEF2486178401F0F
:108DF000FEF716FEEF48A178801FFEF711FEED4842
:108E0000E178C01FFEF70CFEEA48241F21780838DD
:108E1000FEF706FEE74861780938FEF701FEE548EF
:108E2000A1780A38FEF7FCFDE248E1780B38FEF73E
:108E3000F7FD10BD10B5E04C80212046FEF7F0FD97
:108E40002046FEF7EBFDFFF7B5FFD94CD948353486
:108E500021781038FEF7E4FDD64861781138FEF726
:108E6000DFFDD448A1781238FEF7DAFDD148E17869
:108E70001338FEF7D5FDCF4821790C38FEF7D0FD29
:108E8000CC4861790D38FEF7CBFD10BD10B5CA4C4A
:108E900080212046FEF7C4FD2046FEF7BFFDC44CEE
:108EA000C448353421781038FEF7BAFDC1486178DE
:108EB0001138FEF7B5FDBF48A1781238FEF7B0FDB6
:108EC000BC48E1781338FEF7ABFDBA4821790C387D
:108ED000FEF7A6FDB74861790D38FEF7A1FD10BD7C
:108EE000B34B10B5DB1FB54C5C62B54C9C62B54C06
:108EF000DC62002800D05862002900D09962002A64
:108F000000D0DA6210BD30B5A94B0120DB1F996B90
:108F100008704870062088700020C8705A6B120EC6
:108F20000A715A6B120C4A719A8E120A8A719A8EC1
:108F3000CA71996B802208818A72C872996B1A462D
:108F4000087348738873C873087448748874C87445
:108F5000087548758875C875087648768876C87625
:108F60003C3214780C7754784C7794788C77D4789A
:108F7000CC770C4615792034257052796270062220
:108F80008C18521CD2B22077102AF9D39A6B002188
:108F900054182034491CC9B220734029F8D39A6B65
:108FA000002154186034491CC9B220738029F8D3B9
:108FB000986B6321E03001738222427353228273E3
:108FC000C17330BDFEB5FFF79EFF79483522C01F43
:108FD000836BF021CA540122F121CA54F221CA54F0
:108FE0003D22F321CA540722F421CA540122F5215B
:108FF000CA5401463C310A78F621CA5401463C3134
:109000004A78F721CA5402463C329478F822D45464
:1090100002463C32D478F922D45402463C321479C8
:10902000FA22D45402463C325479FB22D4540C2107
:10903000FC22D1540027FD21CF5412220446394688
:10904000423406E09E18E036521C491C357392B239
:1090500089B2655C002DF5D1846B554BA61835336C
:10906000DD78E0363573521C92B2A6181D79E036D1
:109070003573521C92B2A5185B79E0352B73521CE4
:1090800092B2CB1C511A0919E0310B72816B372354
:109090008C18E0342373521C92B28C18521C92B27A
:1090A0008D180623E03423730124E0352C73521C01
:1090B00092B28D180324E035521C2C7392B28C1896
:1090C000E0342373521C92B28C180F23E0342373C4
:1090D000521C92B28B183A24E0331C73521C92B289
:1090E0008B18E0333B24521C1C7392B2FF238C1864
:1090F000E0342373521CFF2492B2393404E08D18FB
:10910000E035521C2F7392B2A242F8D369460B711C
:109110004B718B71CB71432100918922816B01AB23
:1091200092008078FEF763FFFEBDFEB5FFF7EBFE11
:109130001F4C0020E41FE11D20560B462933FF275A
:1091400003284AD0042848D06846077147718771C0
:10915000C771A26B3520F025A8540120F125A85431
:109160000320F225A8543D20F325A8540720F42518
:10917000A8540120F525A8540D48F625353000786F
:10918000A8540B48F72535304078A8540848F825EE
:1091900035308078A8540648F9253530C078A85471
:1091A0000348FA2535300079A854014835300BE0E2
:1091B0004F0000201360004600230046B58D0000DC
:1091C000358E00008D8E00004079FB25A8546D4639
:1091D000ED791020FF2D16D039E0A06B00228272AD
:1091E000C2720A7802734A7842738A788273CA78A4
:1091F000C2731A78684602715A7842719A788271FD
:10920000DA78C271A5E73225FC2085540425FD20BB
:1092100085540E78FE2086544E78FF208654887838
:10922000AE01B054C978701C81543621401C815461
:10923000401C85541978401C81545978401C815435
:109240009978401C8154D978401C81541C201318F3
:109250000C21E0331973401C13180021E0331973FB
:10926000F94D401C05E01618E036401C337380B2FF
:10927000491C6B5C002BF6D1A36BF34A1E18921F9E
:10928000D578E0363573401C80B21E181579E0366B
:109290003573401C80B21D185279E0352A73401C8A
:1092A00082B2C81C511AC918E0310872A06B37216C
:1092B0008318E0331973521C91B243180822E0332B
:1092C0001A73491C89B243180122E0331A73491CEE
:1092D00089B243180322E0331A73491C89B2431838
:1092E0000622E0331A73491C89B243180F22E03377
:1092F0001A73491C89B242183A23E0321373491C8D
:1093000089B242183B23E032491C137389B24218D8
:109310001F23E0321373491C89B242182123E03223
:109320001373491C89B24218E0321773491C00229A
:10933000FF2389B2393303E04518E0352A73491C0D
:109340009942F9DB43200090892201AB9200A0787A
:10935000A16BFEF74CFEFEBD1CB5FFF7D4FDBA486D
:1093600000214238806B35228172C172F0210A548B
:109370000122F1210A540422F2210A543D23F3214F
:109380000B540722F4210A540122F5210A54AE4954
:10939000F622891F0B7813544B78F72213548B78DD
:1093A000F8221354CB78F92213540B79FA22135470
:1093B0004A79FB210A543222FC210A540422FD215D
:1093C0000A54A1493B390A78FE210A549E493B3987
:1093D0004A78FF210A549C493B398A78FF210131A0
:1093E0000A5499493B39CA78FF2102310A5436227E
:1093F000491C0A540422491C0A549349FF22123979
:109400000B78053213544B78521C13548B78521C32
:109410001354CA78FF2108310A54FF22491C0A5408
:109420001D210023FF2239324418E034491C2373E4
:109430009142F9DBFF206946087148718871C87153
:1094400043200090804889224238816B01AB920012
:109450008078FEF7CCFD1CBD7FB57B4C7B4A423C3F
:10946000A07881048918496A0A04120C27D001A93E
:10947000009102ABA16BFEF768FE82B2684680885D
:1094800043283CD1A06B21463C31037F0D78AB4291
:1094900015D1457F4B789D4211D1837F8D78AB42AA
:1094A0000DD1C37FCD78AB4209D1034620331D785F
:1094B0000E79B54203D15B7849798B4202D0002006
:1094C00004B070BDF03000258118F03915E0027845
:1094D000332A3ED008DC002A15D0012A18D0032AEE
:1094E0001AD0062A06D125E0352A0ED0362A3FD0DA
:1094F000FF2A06D04278801C80188842E7D368B2E1
:10950000DEE70846F9E7401CF7E78578C01CF4E77A
:109510004D4A8378333A2EE04B4A43788678373A7F
:109520001670C6785670067996704679801DD6708A
:10953000C0180CE0444B427886782F3B1E70C678EA
:109540005E7006799E704679801DDE708018001F5F
:10955000D3E78278A261C37812029A18A2610379D4
:1095600012029A18A261437912029A18A26109E0C4
:10957000354A8378123A1370C37853700379937025
:109580004379D370801DB8E72F4800214238C1616C
:10959000052202624170704770B52B4C0125423C98
:1095A0006157002622469057022917DAE269216A9C
:1095B000914223D2012804D0022805D0042805D1E5
:1095C00002E0FFF7FFFC01E0FFF7AFFDE661E069B5
:1095D000401D20626078401C60700FE0012804D0BC
:1095E000022805D0042807D102E02670002503E0F8
:1095F000FFF7E8FC01202070FFF7C6FF284670BD8A
:10960000F8B5134E3046FEF709FA054603213046F9
:10961000FEF706FA0C4B0F483B3BDC1F0090112273
:109620000DA1A078FEF7E3FC074629463046FEF779
:10963000F7F90D371AD0FFF78FFEE069E169091AD3
:109640000229FBD30020F8BD8A0000200002014659
:109650004460004688130000434845434B5F49502F
:109660005F434F4E464C4943540000000120EAE757
:10967000F8B5B74C207806281ED0A078B5498004EC
:109680004018FEF7CBF9222805D0002344220221FE
:10969000A078FEF74DFA0125FFF7DEFEC1B20022E9
:1096A000A256AB4800260127C01D130007F0DEFCC0
:1096B00005060D1C314C2F000520C4E706704670CE
:1096C0008670C670FFF77EFC5EE002291CD1A16B9C
:1096D0000A7C02704A7C42708A7C8270C97CC170AC
:1096E000FFF723FD02204BE005290BD1FFF788FF90
:1096F000002801D0606A3FE0FFF746FFE06A80473C
:10970000267004E006293DD0FFF746FF05462846AF
:1097100099E7A16904254A1CF9D0E26949089142F8
:10972000F5D28B490278C91C0A7042784A70827857
:109730008A70C078C870606B401C6063FFF7F5FCEE
:10974000FFF722FF04201BE004250529DAD1804918
:109750006670C91C0A7803789A420BD14A7843781C
:109760009A4207D18A7883789A4203D1C978C0781F
:10977000814202D0A06A03258047FFF705FF03203E
:109780002070C4E7FFF700FF2770C0E710B5704CEA
:10979000A078FEF79DF90620207010BDF3B56E4F3E
:1097A00083B00646002538460095FEF737F9684C29
:1097B0003C342070781EFEF731F96070B81EFEF759
:1097C0002DF9A070F81EFEF729F9E070381DFEF79C
:1097D00025F92071F81CFEF721F960710146207807
:1097E0006278E3781043A2781A4310432279104339
:1097F00008431FD1257008206070DC20A070E57040
:109800002571294665713846FEF70AF96178781E98
:10981000FEF706F9A178B81EFEF702F9E178F81E06
:10982000FEF7FEF82179381DFEF7FAF86179F81C89
:10983000FEF7F6F8464F4949BE700498B863E078E1
:109840006379421821798A1848409A18584080183C
:1098500078636846017840480C461030FEF7E0F81F
:1098600068464078029001463B480F30FEF7D8F832
:10987000684680780190014637480E30FEF7D0F8F0
:109880006846C678344831460D30FEF7C9F832488C
:1098900021461030FEF7C4F82F4802990F30FEF72A
:1098A000BFF82D4801990E30FEF7BAF82A48314624
:1098B0000D30FEF7B5F8284821460830FEF7B0F81D
:1098C00025480299C01DFEF7ABF823480199801D79
:1098D000FEF7A6F820483146401DFEF7A1F8FFF735
:1098E00053FE3D7005B0F0BD1948C169491CC16106
:1098F00070471749C91D0A7802704A7842708A7801
:109900008270C978C170704711490B310A780270B2
:109910004A7842708A788270C978C17070470C4961
:109920000F310A7802704A7842708A788270C9785A
:10993000C1707047064913310A7802704A78427044
:109940008A788270C978C170704701488069704711
:10995000480000203000014603600046785634126B
:10996000017840780902401880B270470A0A0270F4
:109970004170801C7047F0B58446002005460646BD
:109980000C78491C002D00D1401C2706BF0F032F67
:109990000AD1002D00D1401CA4060978A40C64440F
:1099A000091901250C78491C002C19D01B1B5B1EC2
:1099B0001BB2002B02DA0020C043F0BD002D05D100
:1099C000001903E00F781770491C521C2746641ECB
:1099D000A4B2002FF6D12E241470521C761CCFE7AF
:1099E000002E02D12E211170521C00211170F0BDE9
:1099F00010B593B00C464B236A46FFF7BCFF411CE1
:109A000003D02018001D13B010BD0020FBE770B577
:109A100093B015460C4606464B236A46FFF7ABFF4C
:109A2000411C46D024182046FFF79AFF0A34030051
:109A300007F01CFB103C09133C3C13291313133C87
:109A40003C13183C1F3C2078287060786870A07820
:109A5000A870E078E870241D28E04B236A460BE0EC
:109A6000241823E02078641C20180178401C441836
:109A70001CE04B236A46A41C21463046FFF77BFFBF
:109A8000411C16D0ECE74B236A4621463046FFF7CF
:109A900072FF411C0DD024184B236A4621463046E4
:109AA000FFF769FF411C04D024181434204613B07A
:109AB00070BD0020FBE7F7B50D460446122106F005
:109AC00084FA2846FFF74CFF2080A81CFFF748FFC8
:109AD00002040121002A00DAA1704204120FE27090
:109AE000420500D52171820500D56171C20500D5FE
:109AF000A171020600D5E1710007000F2072281D38
:109B0000FFF72EFF6081A81DFFF72AFFA0812846DE
:109B10000830FFF725FFE08128460A30FFF720FFD5
:109B200029460C3100262082771E06E02846FFF7E2
:109B30005FFF010014D0761CB6B26089B042F5D840
:109B4000002607E02846029AFFF761FF010007D0D0
:109B5000761CB6B2A089B042F4D80020E18903E0B7
:109B60003846FEBD401C80B28142FBD80020218ACD
:109B700001E0401C80B28142FBD8207A002801D04D
:109B80000020FEBD0120FEBDFFB55E4A0D46518896
:109B900095B00346491C89B217985180FFF7E6FE3D
:109BA000D902FF31013189B2FFF7E0FE0121FFF751
:109BB000DDFE0021FFF7DAFE0021FFF7D7FE0021CE
:109BC000FFF7D4FE04462946684606F0FDF86E46C7
:109BD000304606F01FF980B213902E21304606F071
:109BE000A7F8070002D0B81B85B200E0139D2570CE
:109BF000641C002D12D02A463146204606F0EAF9B0
:109C00006419002F07D013987619401B401E80B2AC
:109C1000761C1390E1E700202070641C012120468F
:109C2000FFF7A4FE0121FFF7A1FE179919B0401A12
:109C300000B2F0BD3348816803290BD30022826053
:109C40000178022902D30270501E7047491C01702E
:109C500000207047012070472A4A50702A485160FE
:109C600050807047F7B5274C0D46002388B01A4640
:109C700002216078FDF75CFFFF2601363346294656
:109C800000206268FFF780FF3525009582B2089BAF
:109C900060786168FEF7ABF91C4F60788004C019EA
:109CA000406A05042D0C16D0B54200D9354607A8E8
:109CB000009006AB2A4660786168FEF746FA0A9A79
:109CC00001A86168FFF7F7FE05466078FDF700FF21
:109CD00028460BB0F0BDFFF7ADFF002801DA0020E9
:109CE000F7E70028D9D1352000902A46089B6078F4
:109CF0006168FEF77CF9D0E702488168491C816001
:109D0000704700009400002022110000000201466C
:109D1000F7B506468404EF4886B01746002520189C
:109D2000FDF77CFE00287ED0132871D0172802D0C2
:109D30001C2860D160E0E74810382018FDF76EFE5F
:109D4000C00732D0E348F7302018FDF767FE6946B8
:109D500008700490DF48F6302018FDF75FFE694672
:109D600048700390DB48F5302018FDF757FE694630
:109D700007468870D748F4302018FDF74FFE694633
:109D8000C870D449D0316118096A019089B2029132
:109D900000973146D0A0039B049A05F0B7FCCD484C
:109DA000012108382018FDF73BFED4482018406AEE
:109DB0000404240C3FD00120C002844200D9044690
:109DC000224630460799FEF7ABF800280DDD10E07B
:109DD000601B82B2079841193046FEF711F8070060
:109DE00005D53046FDF774FE384609B0F0BD281899
:109DF00085B2AC42ECD11EE03046FDF7BFFF012832
:109E0000F3D13146BEA005F081FC14E00BE0FFE782
:109E10003A463146BFA005F079FC3046FDF7F3FE27
:109E20000128E2D107E000233A4601213046FDF740
:109E30007FFEB042D9D10120D7E7FFB5064683B0F7
:109E4000BF480090A348B704144600253818FDF712
:109E5000E5FD002862D013284DD0172802D01C2819
:109E600067D13EE09B4810383818FDF7D7FDC00792
:109E700010D0A078E1786B46069A07C36378227801
:109E80003146B0A005F042FC92480121083838184C
:109E9000FDF7C6FD99483818406A0404240C48D0E0
:109EA0000120C002844200D904462246304604996B
:109EB000FEF736F800280DDD10E0601B82B2049832
:109EC00041193046FDF79CFF070005D53046FDF7E8
:109ED000FFFD384607B0F0BD281885B2AC42ECD182
:109EE00027E03046FDF74AFF0128F3D1314684A030
:109EF00005F00CFC1DE0A078E1786B46069A07C3DC
:109F000063782278314699A005F000FC214630465E
:109F1000069AFDF7AFFE0128DCD10AE03046FDF7D6
:109F2000D7FD002301213046009AFDF701FEB04223
:109F3000D0D10120CEE7F7B506468404654884B049
:109F400015462018FDF76AFD002838D0222843D195
:109F50006A482018406A0204120C3DD00120C00259
:109F6000824200D9024602A8009001AB3046059912
:109F7000FEF7EBF8041E06DC0246314686A005F02B
:109F8000C5FB2046A6E787B2002415E06846008995
:109F90000090381B82B2059801AB01193046FEF7DC
:109FA00026F8050006D50246314682A005F0AEFB34
:109FB00028468FE7201884B2BC42E7D10CE000238A
:109FC0002A4602213046FDF7B3FDB04282D12A462F
:109FD00031467EA005F09AFB01207BE7F7B50546E8
:109FE00084043C4884B016462018FDF717FD00286D
:109FF00065D0132858D0172802D01C2867D149E013
:10A00000344810382018FDF709FDC00732D03B480E
:10A01000D9382018FDF702FD6946087003903748CB
:10A02000DA382018FDF7FAFC6946487007463348CD
:10A03000DB382018FDF7F2FC6946064688702F4889
:10A04000DC382018FDF7EAFC6946C8702149D03198
:10A050006118096A019089B202913B46009629462F
:10A060001DA0039A05F052FB1A4801210838201858
:10A07000FDF7D6FC21482018406A0204120C26D0B5
:10A080000120C002824200D9024628460599FDF708
:10A0900047FF1CE02846FDF771FE012818D129462C
:10A0A00017A005F033FB12E03246294619A005F04F
:10A0B0002DFB2846FDF7A7FD012809D107E0002365
:10A0C000324601212846FDF733FDA84200D1012088
:10A0D00000E700003000014625643A436F6E6E656C
:10A0E00063746564202D2025642E25642E25642E3E
:10A0F0002564203A2025640D0A0000000002014674
:10A1000025643A536F636B657420436C6F736564A9
:10A110000D0A000025643A4C697374656E2C205456
:10A12000435020736572766572206C6F6F70626148
:10A13000636B2C20706F7274205B25645D0D0A00C8
:10A1400050C3000025643A436F6E6E6563746564A6
:10A1500020746F202D2025642E25642E25642E2545
:10A1600064203A2025640D0A0000000025643A545A
:10A17000727920746F20636F6E6E65637420746FE4
:10A18000207468652025642E25642E25642E2564A0
:10A19000203A2025640D0A0025643A207265637612
:10A1A00066726F6D206572726F722E20256C640D61
:10A1B0000A00000025643A2073656E64746F2065A0
:10A1C00072726F722E20256C640D0A0025643A4F5E
:10A1D00070656E65642C20554450206C6F6F706202
:10A1E00061636B2C20706F7274205B25645D0D0AB7
:10A1F00000000000F0B587B002F0C0F904466D46DB
:10A20000A81DFFF776FB03A802300690FFF77CFB42
:10A2100002A802300746FFF782FB04A80230064678
:10A22000FFF788FB214606221731684602F08EFAB6
:10A2300020460422A91D1D3002F08CFA204604227B
:10A240002130069902F086FA20460422394625304C
:10A2500002F080FA204604223146653002F07AFA94
:10A260006034E078002801D0022000E00120694637
:10A2700088750020FEF742FC07B0F0BD7047000073
:10A28000704770477047704710B500F0C4FC10BDB0
:10A290007047704710B5104804F012F810BD10B5A3
:10A2A0000E4804F00DF810BD7047704770477047B6
:10A2B000704770477047704710B503F094FF10BDAA
:10A2C00070477047704770477047704770477047D6
:10A2D000704770477047704700C0004000D0004092
:10A2E00010B5C0B2FDF775FB10BD10B5FDF783FBCF
:10A2F000FDF76FFB10BD0020C043704710B5C0B222
:10A30000FDF767FB10BDFEE73EB502F037F96421AB
:10A31000095C002906D0B3490978012906D0B2A00A
:10A3200005F0F4F9B4A005F0F1F93EBD0146213184
:10A330004A7C097C12020A43014620318B7B4C7B0C
:10A340000094019302920B7BCA7A4931ABA005F0CD
:10A35000DDF9E7E7FEB502F011F904460025B04942
:10A360000420FFF779FC20466030427969460A7084
:10A3700082794A70C27906468A70007AC8700320D2
:10A3800000F0A0FE20462B3069340190214668463B
:10A39000019AFFF767FC074601280BD06D1CEDB250
:10A3A000022D07D803F0D5FBF0780028EED0FFF798
:10A3B0005FF9EBE7012000F085FE3846FEBD10B5E1
:10A3C00002F0DCF86030C078002806D095480078AC
:10A3D000012803D094A005F099F910BDFFF7B5FA54
:10A3E000014696A005F092F910BD70B500248C4985
:10A3F0000320FFF7D3F99C499A4A0846FEF770FDFF
:10A40000032000F05FFEFFF733F90546042807D06C
:10A41000002D01D1641CE4B2032C06D9FFF7B6F974
:10A42000012000F04FFE68B270BD03F092FBEAE736
:10A43000F0B58FB002F0A2F8044638228B49684686
:10A44000FCF7BAFE611D8AA005F060F926462036A9
:10A45000707A8D49800009588CA005F057F991A0B9
:10A4600005F054F9204660300E90C078012823D0C2
:10A4700092A194A005F04AF99BA005F047F9274660
:10A480002337787B3A7B010211439CA005F03EF90B
:10A49000A149A2A005F03AF99F49A9A0491C05F0DD
:10A4A00035F9B0A005F032F925464035287E002860
:10A4B00004D02246583202E0B0A1DAE7B4A2002864
:10A4C00001D0B5A100E0B6A1B8A005F01FF9BBA06E
:10A4D00005F01CF90E988078012811D0B0A1C0A217
:10A4E000C7A005F013F9C9A005F010F9D0A005F038
:10A4F0000DF9787C3A7C0102114303D0D2A003E02D
:10A50000A5A1ECE7A6A15EA005F000F9D2A005F098
:10A51000FDF820462130417D007D0902014301D034
:10A52000D3A001E09EA156A005F0F0F8D4A005F05C
:10A53000EDF80023D8A2D8A1D9A005F0E7F86879F2
:10A54000DE4980000958DEA005F0E0F8A8796946E8
:10A5500080000958E0A005F0D9F8E879E149095CE4
:10A56000E1A005F0D3F8287AE04980000958E0A07E
:10A5700005F0CCF8687ADF49095CDFA005F0C6F881
:10A580006979DF4800291CD00168DEA005F0BEF81B
:10A590000223C1A2C0A1E0A005F0B8F8E5A3E7A29C
:10A5A000E8A1ECA005F0B2F8EFA005F0AFF8F7A035
:10A5B00005F0ACF8787D3A7D0102114305D0ACA0DE
:10A5C00005E0A97A89004158DFE775A12CA005F0C4
:10A5D0009DF8F1A005F09AF8717E002901D0F1A054
:10A5E000EAE1E7E1CA000020202320444E53204640
:10A5F00061696C65640D0A000D0A00002023204487
:10A600004E533A202573203D3E2025642E25642E8E
:10A6100025642E2564203A2025640D0A00000000E0
:10A620001C03002014010020202320444843502014
:10A630004661696C65640D0A000000002023204417
:10A64000484350204950204C65617365642074690B
:10A650006D65203A202575207365636F6E64730DF8
:10A660000A0000007DA20000F5A1000034120100E4
:10A67000202D20446576696365206E616D653A2002
:10A6800025730D0A0000000004010020202D204445
:10A690006576696365206D6F64653A2025730D0AE0
:10A6A00000000000202D204E6574776F726B2073C0
:10A6B000657474696E67733A200D0A00537461748F
:10A6C00069630000092D204F627461696E696E67CD
:10A6D0002049502073657474696E67733A205B2556
:10A6E000735D0D0A00000000092D205443502F55C2
:10A6F000445020706F7274730D0A000009202020EE
:10A700002B20533245206461746120706F72743A5B
:10A71000205B25645D0D0A0051C300000920202044
:10A720002B205443502F5544502073657474696E28
:10A730006720706F72743A205B25645D0D0A00001B
:10A74000092020202B204669726D77617265207583
:10A75000706461746520706F72743A205B25645D6B
:10A760000D0A0000202D2053656172636820494462
:10A7700020636F64653A200D0A0000004175746F14
:10A780006D61746963202D2044484350000000002F
:10A790004E6F6E6500000000456E61626C6564007E
:10A7A00044697361626C656400000000092D202516
:10A7B000733A205B25735D0D0A000000202D2045B3
:10A7C000746865726E657420636F6E6E656374691C
:10A7D0006F6E2070617373776F72643A200D0A0098
:10A7E0002854435020736572766572202F206D695E
:10A7F000786564206D6F6465206F6E6C7929000048
:10A80000092D2025732025730D0A0000202D2043DB
:10A810006F6E6E656374696F6E2074696D6572200A
:10A8200073657474696E67733A200D0A0000000046
:10A83000092D20496E6163746976697479207469A1
:10A840006D65723A200000005B25645D2028736509
:10A8500063290D0A00000000092D205265636F6E08
:10A860006E65637420696E74657276616C3A20005F
:10A870005B25645D20286D736563290D0A00000067
:10A88000202D2053657269616C2073657474696E44
:10A8900067733A200D0A0000554152540000000031
:10A8A000092D204461746120257320706F72743A01
:10A8B00020205B257325645D0D0A0000BC0200208A
:10A8C000092020202B20554152542049463A205B34
:10A8D00025735D0D0A000000092020202B2025642F
:10A8E0002D0000009C02002025642D00A002002005
:10A8F00025732D00AC0200202564202F20000000CD
:10A90000B0020020466C6F7720636F6E74726F6CBC
:10A910003A2025730D0A0000092D204465627567F1
:10A9200020257320706F72743A205B257325645D57
:10A930000D0A000028666978656429004E4F4E456F
:10A94000000000003131353230302D382D4E2D31A0
:10A9500000000000092020202B202573202F202517
:10A96000732025730D0A0000202D20536572696144
:10A970006C2064617461207061636B696E67206F25
:10A980007074696F6E733A0D0A000000092D20542F
:10A99000696D653A20000000092D2053697A653AF7
:10A9A000200000005B25645D2028627974657329AE
:10A9B0000D0A0000AE49AF4804F0A8FEAEA004F0B6
:10A9C000A5FEB07F01281CD0A949AA4804F09EFE2C
:10A9D000ACA004F09BFE8034E07E012814D0A44992
:10A9E000B2A004F093FEE37FA27F617FB1A004F0E8
:10A9F0008DFEB9A004F08AFEE87A002807D0C0A234
:10AA000006E0B17EBFA0E1E799490839E8E7C2A2B4
:10AA1000C4A1C5A004F07AFE287B002801D0C9A2F9
:10AA200000E0C9A2BFA1CCA004F070FED1A004F048
:10AA30006DFEDB4C207804F02CFDDA4D80002F58A1
:10AA4000207804F017FDD84E800032583B46B5A15F
:10AA5000D6A004F05BFE607804F01BFD80002F5848
:10AA6000607804F007FD800032583B46ADA1D7A0C6
:10AA700004F04CFEA07804F00CFD80002F58A07864
:10AA800004F0F8FC800032583B46A6A1D7A004F0A1
:10AA90003DFEE07804F0FDFC80002D58E07804F0E5
:10AAA000E9FC800032582B469EA1D8A004F02EFE6F
:10AAB000DEA1A2A004F02AFE0FB0F0BD38B501F06F
:10AAC0005DFD044683A004F021FED8A19BA004F004
:10AAD0001DFEE3A1E5A004F019FEE6A004F016FEB9
:10AAE000EEA00090A37D627D217DEEA004F00EFE1D
:10AAF000CEA192A004F00AFE38BD1FB501F03EFDC4
:10AB0000044600F090F8F0A103C901910090EEA175
:10AB100003C903910290FCF787FBED4905F0EDFABC
:10AB2000EC49086008202870EB4868802846FDF74B
:10AB3000D4FE02A96846FDF750FE00F04FFA01F07E
:10AB4000D5FD01F0E2FE03F0D1FC04F0F5FB254653
:10AB50004035687B002803D0FFF7B0FFFFF768FCA3
:10AB600026466036F0780127002803D0FFF73DFC29
:10AB7000042845D001F0E9FE687B002803D001F0ED
:10AB800046FEFFF71CFC2034607A01280DD0307996
:10AB900000280AD0FFF7DEFB002801D0CF4807705D
:10ABA000687B002801D0FFF7AFFBCD480024077079
:10ABB000CC4F3878002803D0002001F0C5FA3C7053
:10ABC000C94F02F0C6FF002001F0FDFAF07800281E
:10ABD00001D0FEF74DFDC54AC5490620FFF798F89C
:10ABE000C4480178002900D0047038780028E8D0E3
:10ABF000687B002802D0C0A004F088FD3C70E0E72C
:10AC0000C5480770B8E701B5C448009901600168FC
:10AC10000029FCD108BDC1480168002902D00168A3
:10AC2000491E0160704710B500F0FDF9BC4A0120D3
:10AC30009110FCF75DFB03F0B3FA03F090FCFCF716
:10AC4000F3FA7D21C90005F058FAB649401E884242
:10AC50000CD8B5494861B5480722C3691B021B0AD5
:10AC60004C042343C361002088610A6110BD0000C9
:10AC7000A0A7000080A60000092D20436861723A59
:10AC800020000000202D2053657269616C20636FE5
:10AC90006D6D616E64206D6F646520737774696398
:10ACA0006820636F64653A0D0A000000092D2025B5
:10ACB000730D0A00092D205B252E32585D5B252E71
:10ACC00032585D5B252E32585D2028486578206F0C
:10ACD0006E6C79290D0A0000202D2048617264777E
:10ACE00061726520696E666F726D6174696F6E3A2C
:10ACF000205374617475732070696E730D0A0000BF
:10AD0000445452005B252E32585D20286865782017
:10AD10006F6E6C79290D0A00504859206C696E6B72
:10AD2000000000002D000000092D2053746174758F
:10AD30007320313A205B25735D202D2025730D0A89
:10AD4000000000004453520054435020636F6E6E65
:10AD5000656374696F6E0000092D2053746174750A
:10AD60007320323A205B25735D202D2025730D0A58
:10AD700000000000202D2048617264776172652018
:10AD8000696E666F726D6174696F6E3A2055736596
:10AD90007220492F4F2070696E730D0A0000000069
:10ADA000F402002000030020F8020020092D2055A5
:10ADB000736572494F20413A205B25735D202D2039
:10ADC0002573202F2025730D0A000000092D205522
:10ADD000736572494F20423A205B25735D202D2018
:10ADE0002573202F2025730D0A000000092D205502
:10ADF000736572494F20433A205B25735D202D20F7
:10AE00002573202F2025730D0A000000092D2055E1
:10AE1000736572494F20443A205B25735D202D20D5
:10AE20002573202F2025730D0A0000003D3D3D3D78
:10AE30003D3D3D3D3D3D3D3D3D3D3D3D3D3D3D3D42
:10AE40003D3D3D3D3D3D3D3D3D3D3D3D3D3D3D3D32
:10AE50003D3D3D3D3D3D3D3D3D3D3D3D3D3D00009C
:10AE600057495A3735304A520000000020257320D8
:10AE70000D0A0000203E3E2057495A6E657420534B
:10AE8000657269616C20746F2045746865726E65C7
:10AE900074204465766963650D0A0000537461622D
:10AEA0006C650000203E3E204669726D77617265D8
:10AEB0002076657273696F6E3A2025642E25642EA4
:10AEC00025642025730D0A0004020202020202001A
:10AED0001027000000200046C4090000CA0000201E
:10AEE000BB000020A80000208C0200208913000075
:10AEF0001C0B0020BA000020203E20554152542057
:10AF000052782052696E67206275666665722046C7
:10AF1000756C6C0D0A00000014010020A4000020D4
:10AF2000006CDC02FFFFFF0000E000E004ED00E049
:10AF3000FEB50446022818D25E4E6500705B009094
:10AF40000120694608715C48A700C059FCF7C7FAA0
:10AF50005948715B401F025D801E005DFCF79AFB43
:10AF60005548715BC059FCF736FBFEBD70B5012337
:10AF700021241D026406002229462046FCF7B2FB6C
:10AF8000656170BD10B501232120002219464006DD
:10AF9000FCF7A8FB10BD70B5012500246D02212629
:10AFA000760629463046FCF702FB002801D0012036
:10AFB00070BD0520FFF727FE641CE4B2052CF0D31A
:10AFC000002070BD70B5012321245D0264060022BB
:10AFD00029462046FCF786FB656170BD10B501204F
:10AFE00003F05AF901229203432051000006FDF7B5
:10AFF000ADFE002003F050F9FFF7E4FFFFF7CBFFB1
:10B0000000280ED000202C4908390870FFF7BAFF3D
:10B01000FFF7ACFF0020FFF78BFF0120FFF788FF51
:10B0200010BD0120EFE7254902200863244988600C
:10B03000704710B5212001214006FCF7B8FA10BD79
:10B0400070470020704710B5FF21212001314006D4
:10B05000FCF7ADFA10BD10B5022807D2154A410021
:10B06000515A154A80001058FCF7C3FA10BD10B5AC
:10B07000022807D20F4A4100515A0F4A8000105847
:10B08000FCF7A9FA10BD022808D20B4982008958A2
:10B090004A68084B4000185A42404A60704710B551
:10B0A000044A4100515A044A80001058FCF789FABA
:10B0B00010BD00006C120100B000002040110041E2
:10B0C0000020004170B5054601F058FA04462934C5
:10B0D00001F054FA012040022B0005F0C7FF0610D2
:10B0E0000406090C0E10012103E0022161700DE03D
:10B0F0000321617006E00421FBE70521F9E761788F
:10B10000022903D0002104F05FFA70BD0121FAE7A3
:10B1100000290FD00023F84A00280CD0012813D0B2
:10B1200002281AD0032805D1106B401C1ED0D06B0A
:10B130004018D0637047106B401C03D0106B401850
:10B140001063704713637047106B401C03D0506B43
:10B1500040185063704753637047106B401C03D016
:10B16000906B40189063704793637047D363704748
:10B17000FEB50C46074601F001FA002506464E369C
:10B180000095019502950B2C00D30A2422463946DE
:10B19000684604F0BDFE304604F03CFEA04207D1F4
:10B1A00022466946304604F0E1FD002800D1012521
:10B1B0002846FEBDF1B584B001F0E0F929300390D6
:10B1C00001F0DCF90746453701F0D8F94E3002901E
:10B1D0007879022804D1002003F090FB002871D177
:10B1E00004988104C5480818406A002586B20120E9
:10B1F000C002C14C864201D9064601E0002E3CD077
:10B20000BF480818FCF70AFC172829D01C2827D0AB
:10B2100022282BD1B84832462830034600901833F4
:10B22000B8490498FCF791FFB349E0844031042207
:10B23000081D04F09BFD002818D0AF49086C486435
:10B24000387A012812D108464030228DC178019207
:10B250000091837842780178ABA004F057FA05E0BA
:10B260003246A8490498FCF75BFEE084E58225831A
:10B270002573E18C0220FFF74BFF039840780128EB
:10B2800004D0022809D16078002806D10298007DF8
:10B29000012802D1A07A002806D0E08C002811D025
:10B2A000F879012813D016E031469648FFF760FF81
:10B2B000012809D0A572E584A07A002802D104985B
:10B2C000FCF75CFD05B0F0BD0120A072F3E704F0CF
:10B2D000D0F90028F6D038788A4E012804D0787941
:10B2E000012814D000272CE0002003F0D7FA002713
:10B2F00005E0F15D002003F0CEF97F1CBFB2E08CC9
:10B300008742F6D3002003F0E1FAE18C0EE0607B87
:10B310000128D7D1002705E0F15D002003F0BBF93B
:10B320007F1CBFB2E08C8742F6D30DE00320FFF70D
:10B33000EFFEE584C6E7F15D002003F0ACF97F1C69
:10B34000BFB2E08C8742F6D381B2EFE7F8B501F0E7
:10B3500015F90546764829350188764800880A1887
:10B3600075480088101A04F0D2FE634C8EB2A08C8F
:10B3700001273018FF02B84213D3687C00280DD093
:10B38000012E0BD1002003F009FAC1B26B48A28C48
:10B390008154687C884201D11046F8BDA08C381ACF
:10B3A00086B2E87BA97B0002084305D1287C0028EF
:10B3B00002D1687C002801D000272AE000255F4FD9
:10B3C00008E0002003F0EAF9A18C7854491C6D1CB8
:10B3D000A184ADB2B542F4D3A08CF8BD002003F037
:10B3E000DDF902465549A08C0A54401C80B2A08465
:10B3F0006A7C002A04D009182039C97F8A4204D007
:10B40000297C002903D0814201D180B2F8BD7F1C84
:10B41000BFB2B742E2D3E87BA97B0002084315D054
:10B42000A58C002D12D0207A00280FD0404801882A
:10B43000404800880A1840480088101A04F067FE47
:10B44000002901D1002020722846F8BD0020F8BD57
:10B45000FEB5064601F092F80546293501F08EF852
:10B4600045300090FFF7E5FD002844D1FFF76EFF5F
:10B47000014601900020FFF74BFE019800271E4C6B
:10B48000002869D01E48B1040818FCF7C7FA142830
:10B490007ED0172861D01C285FD0222877D1A878C9
:10B4A000002808D1E878002805D12879002802D1A1
:10B4B0006879002806D0687A297A00020843AB1C14
:10B4C000009011E00C4840300178002908D1417803
:10B4D000002905D18178002902D1C07800282FD019
:10B4E000054B208D4033009014493046019AFCF7FB
:10B4F0007EFD06B22BE04DE0BC00002000020146BC
:10B50000300001461C0B0020203E205544502050A6
:10B510006565722049502F506F72743A2025642E51
:10B5200025642E25642E2564203A2025640D0A000A
:10B530009602002092020020940200201C030020AA
:10B540000098007A012802D1FE4804F0DFF8002EAE
:10B550001DDDA08C801BA08419E0A07A012816D1E3
:10B56000F9493046019AFCF74BFC00B2002802DD95
:10B57000A18C081AA08401200199FFF7C9FDE87D7C
:10B58000012804D1207B002805D02773278300E001
:10B5900004E0E782FEBD01202071F7E7A784FEBD2D
:10B5A000F8B5074600F0EAFF00F0E8FF044629344A
:10B5B00000F0E4FF0646E548BD0445362818FCF7D0
:10B5C0002DFAE34AE34B00281BD0222818D1E24889
:10B5D000018810881A880818801A04F098FDDF4C3A
:10B5E000A08C014302D03846FFF732FFDC48281810
:10B5F000406AE18C80B2084302D03846FFF7DAFD9A
:10B60000F8BD002010801880D44D0023A884E88461
:10B61000E079A17902020A4302213846FCF788FA50
:10B62000B842EDD10520FFF74DFDE07BA17B000284
:10B63000084300D0A883307A0128E1D1C9A004F0E2
:10B6400065F8F8BD10B5C54CA08A002809D0CC49D2
:10B65000884204D2401C0840A08202D00DE00020A5
:10B66000A08202F020FE04F03DFBFBF789FDC549F6
:10B6700004F04DFDC4480818A08280B210BDB74840
:10B680000021C170C171017141720172C172817278
:10B69000C182018401834184704770B5054600F082
:10B6A0006DFF0446A949A80429344018FCF7B6F9EF
:10B6B000002807D02178032909D0172804D01C2896
:10B6C00002D004E0284670BD2846FCF757FB284608
:10B6D000FCF7FEF9F6E710B500220621FCF76BFE39
:10B6E00010BDF0B585B000F049FF0446293400F0E4
:10B6F00045FF0546453500F041FF014600204E312B
:10B70000064600900391A148FCF788F96946087045
:10B7100002909E48401EFCF781F9694648700190EE
:10B720009A48801EFCF77AF9694688700746974860
:10B73000C01EFCF773F96946C8700399897D012919
:10B7400008D18649897B012904D0287A012851D162
:10B750008FA011E00299002906D10199002903D197
:10B76000002F01D1002803D0A178002907D00FE0D5
:10B77000287A01283ED190A003F0C8FF3AE0E27891
:10B78000002A05D12279002A02D16279002A10D03C
:10B79000029A8A4214D1E378019A9A4210D122790E
:10B7A00097420DD1627990420AD1287A012805D0BA
:10B7B00020E0287A01281DD18E48DDE78EA0DBE746
:10B7C0000298C02817D10198A82814D10398407D69
:10B7D000002810D1C0290ED1E278A82A0BD12379F4
:10B7E0009F4208D0287A012804D1607900908F48C0
:10B7F00003F08CFF0126304664E5F1B586B000F019
:10B80000BDFE00F0BBFE0546293500F0B7FE453011
:10B81000009000F0B3FE064600246846029484813E
:10B8200006984E368104494804910818FCF7F6F84A
:10B830004B4A0499012789180591172858D020DC14
:10B8400000287BD013282BD0142818D1434C6078C3
:10B85000002814D1404801883D4800880A183D4816
:10B860000088101A04F053FC002908D00698FFF74E
:10B8700014FF6770687B297B00020843E08307B0F0
:10B88000F0BD1828DDD01C28F9D1344C0598406A49
:10B89000E18C80B20843069851D0FFF78BFCF5E7A6
:10B8A0002E4E70780128EAD1687B297B000208437C
:10B8B000F18B8842E3D8F483FFF713FF01280DD002
:10B8C000687A297A02020A43A91C0698FCF7D2F981
:10B8D000707C401CC0B270740A28D0D30698FFF761
:10B8E000DCFE1B48747404801A4804807470C6E738
:10B8F0001649049810394018FCF790F8C0071FD07B
:10B900000220FFF7DFFB1548C18A002905D1E97A3B
:10B91000AA7A0902114300D0C7701048008B002892
:10B9200004D1E87D002801D00C480771307D002843
:10B9300007D00A48417801297ED079E026E122E14A
:10B94000B3E079E0681301001C03002030000146D9
:10B95000920200209402002096020020BC000020E9
:10B9600000020146203E205345473A5544505F4D62
:10B970004F44453A534F434B4F50454E0D0A00003C
:10B98000FFFF000010270000B88800001360004689
:10B99000203E205345473A434F4E4E454354494F6E
:10B9A0004E204641494C4544202D20444E532046CC
:10B9B00061696C65640D0A00203E205345473A4397
:10B9C0004F4E4E454354494F4E204641494C454405
:10B9D000202D20496E76616C696420495020616495
:10B9E00064726573733A205A65726F2049500D0A6C
:10B9F00000000000FC130100203E205345473A435D
:10BA00004F4E4E454354494F4E204641494C4544C4
:10BA1000202D204475706C69636174652049502045
:10BA2000616464726573730D0A000000B413010051
:10BA3000827A114303D004E0FD48877201E0477227
:10BA400044840098007A012819D102AA042106989A
:10BA5000FCF719FD03AA05210698FCF714FDF4482C
:10BA60004078002868468189C07A00900191684634
:10BA7000837A427A017A09D0EEA003F047FEEC48BF
:10BA80004178002904D0012907D007E0F4A0F4E7A9
:10BA9000FE490C80FE490C8000E044704474FD496E
:10BAA000049840180121FBF7BBFFFB480188F748C9
:10BAB00000880A18F6480088101A04F028FBDC48B1
:10BAC000808C014302D00698FFF7C2FC0598406ABB
:10BAD000D74980B2C98C084302D00698FFF76AFBA9
:10BAE000D348C07801280ED1E87AA97A0002084329
:10BAF000CF49C98A884206D80698FFF7CEFDCC48C0
:10BB0000047104834470E87D012827D1C848017975
:10BB1000012923D1007B002802D0012810D01DE08C
:10BB2000687E297E00020843C149098B884215D8E6
:10BB3000002813D00698FFF7CEFDBD480483077395
:10BB4000E87EA97E0002BA4D0843298B884205D8B9
:10BB5000002803D00698FFF7BEFD2C83B44D68780B
:10BB6000002800D08BE6307D0128FBD1A87A002880
:10BB7000F8D1688CC9498842F4D30698FFF78DFD47
:10BB80006C726C847BE6FCF7F9F878E60120FFF72D
:10BB900099FAA74A5078002812D020461446D0843B
:10BBA000FFF750FD0246202301210698FBF7C0FF56
:10BBB00006998842D6D14036707B012825D02AE0EC
:10BBC000FFF75DFD20469084D084E8791446A9797A
:10BBD00002020A43202301210698FBF7A9FF0699D8
:10BBE0008842BFD14036707B012805D1E87BA97B14
:10BBF0000002084300D0A0830698FCF704F80098E0
:10BC0000007A0128AED1A6A013E0E87BA97B000250
:10BC1000084300D0A083A079002805D1687B297B48
:10BC20000002084300D0A7710098007A012899D13A
:10BC3000A5A003F06BFD22E6F1B586B000F09EFCF6
:10BC400000F09CFC0646293600F098FC4530009038
:10BC500000F094FC07460025684602958581069809
:10BC60004E3784048B4808302018FBF7D7FEA049D4
:10BC700061180491172812D002DC00287ED1B7E0A9
:10BC80001828FCD01C2879D1694C0498406AE18CB2
:10BC900080B20843069872D0FFF78CFAF5E77D482A
:10BCA00008382018FBF7BAFEC0073AD00220FFF789
:10BCB00009FA5F48C18A002906D1F17AB27A0902ED
:10BCC000114301D00121C170397D002907D0012124
:10BCD000417245840098007A012803D018E00121C0
:10BCE0008172F7E702AA04210698FCF7CCFB03AAAD
:10BCF00005210698FCF7C7FB68468189C07A009049
:10BD000001916846837A427A017A55A003F0FEFCDD
:10BD10005E48012105805E4805805E482018FBF7DB
:10BD20007FFE5D480188594800880A1858480088F5
:10BD3000101A04F0ECF93E4CA08C014302D0069896
:10BD4000FFF786FB0498406AE18C80B2084302D07A
:10BD50000698FFF72FFAE07801280BD1F07AB17A34
:10BD600000020843E18A884204D80698FFF795FC50
:10BD700025712583F07D012827D101E034E034E0EE
:10BD80002079012821D1207B002802D001280FD062
:10BD90001BE0707E317E00020843218B884214D85C
:10BDA000002812D00698FFF796FC25830120207307
:10BDB000F07EB17E00020843218B884205D800281E
:10BDC00003D00698FFF787FC2583387D01280BD127
:10BDD000A07A002808D1608C3049884204D30698A4
:10BDE000FFF75BFC6572658449E5FBF7C7FF46E535
:10BDF0000120FFF767F9FFF742FC0D4C2023A584D3
:10BE0000E584F079B17902020A4301210698FBF733
:10BE10008FFE06998842E7D14037787B012805D10B
:10BE2000F07BB17B0002084300D0A083069861E05C
:10BE3000BC000020203E205345473A434F4E4E451C
:10BE40004354454420544F202D2025642E25642E34
:10BE500025642E2564203A2025640D0A0000000088
:10BE6000203E205345473A434F4E4E4543544544A8
:10BE70002046524F4D202D2025642E25642E25640A
:10BE80002E2564203A2025640D0A0000920200202D
:10BE9000940200202800014696020020881300002A
:10BEA000203E205345473A5443505F4D495845443E
:10BEB0005F4D4F44453A5345525645525F534F43A9
:10BEC0004B4F50454E0D0A00203E205345473A54F3
:10BED00043505F4D495845445F4D4F44453A434CAC
:10BEE00049454E545F534F434B4F50454E0D0A004A
:10BEF00000020146FBF787FE0098007A01288AD1EC
:10BF0000FCA003F003FCBAE4F1B584B000F036FB0A
:10BF100000F034FB0546293500F030FB4530009039
:10BF200000F02CFB4E30002401900294684684817E
:10BF300004988604F8483018FBF770FDF749771825
:10BF4000172828D019DC00287ED0132814D1687B4C
:10BF50002A7B0102F2481143C28B91420CD8C48360
:10BF6000FFF7BFFB012807D0687A297A02020A434B
:10BF7000A91C0498FBF77EFE3EE41828E4D01C2898
:10BF8000FAD1E74C786AE18C80B2084304987CD0FF
:10BF9000FFF710F9F6E7E04810383018FBF73EFDE0
:10BFA000C00744D00220FFF78DF8DD48C18A002980
:10BFB00006D1E97AAA7A0902114301D00121C170A0
:10BFC000018B002904D1E97D002901D001210171F3
:10BFD000D348012181728079012802D1D04884712F
:10BFE000C4830098007A012815D102AA042104987C
:10BFF000FCF749FA03AA05210498FCF744FA6846BD
:10C000008189C07A009001916846837A427A017AE8
:10C01000C44803F07BFBC44801210480C34804806A
:10C02000BF48C473BC4808383018FBF7F9FCC04857
:10C030000188BD4800880A18BC480088101A04F01E
:10C0400066F8B74EB08C00E049E0014302D0049896
:10C05000FFF7FEF9786AF18C80B2084302D00498A9
:10C06000FFF7A8F8F07801280BD1E87AA97A000246
:10C070000843F18A884204D80498FFF70EFB347114
:10C080003483E87D012801D076E725E03079012866
:10C09000FAD1307B00280FD00128F5D1E87EA97EA7
:10C0A00000020843318B8842EED80028ECD0049877
:10C0B000FFF711FB34835FE7687E297E00020843A7
:10C0C000318B8842F7D80028F5D00498FFF703FB9E
:10C0D000348301203073E1E7FBF750FE4CE7012089
:10C0E000FEF7F0FFFFF7CBFA8D4EB484F484FFF730
:10C0F000A9FA0246202301210498FBF719FD0499AF
:10C100008842D8D101984030407B012805D1E87B96
:10C11000A97B0002084300D0B083B079002806D183
:10C12000687B297B0002084301D00120B071009890
:10C13000007A0128BFD1F07B0028BCD17DA003F09C
:10C14000E5FA0120F07317E7F8B5044600F016FA97
:10C150000746293700F012FA0646204645360024E5
:10C160006F4D002807D001202870FEF7ABFF38780C
:10C1700002280DD00DE02C700420FEF7A3FF307ACA
:10C18000002811D074A003F0C1FA0E2277A108E0B4
:10C190006C70307A002807D078A003F0B7FA0E222E
:10C1A0007BA1002002F0DDFA5F48AC8404805F4888
:10C1B0000480EC702C71EC716C71EC822C832C84FB
:10C1C0006C832C72F8BDF1B500F0D8F9064629361B
:10C1D00000F0D4F90546453500F0D0F9504C002761
:10C1E000217CA830002900D02774007801282FD0A6
:10C1F000207801282CD1A078012809D10098FFF7D8
:10C200004CFA0020FFF7A0FFA770207801281FD16B
:10C210003078002806D0012808D002280AD0032848
:10C220000FD10BE00098FFF76FFE0AE00098FFF7D0
:10C2300003FD06E00098FFF7E0FA02E00098FFF740
:10C24000AFF96879012801D0022801D102F09DF9E7
:10C25000F8BD10B500F092F92930407810BDF8B55E
:10C26000074633480024008825462F4E00900FE0F3
:10C270002B484B492A30025D30880A54401C0099F3
:10C2800003F03BFF264831802A300555641CE4B298
:10C29000BC42EDD3224845718574F8BD70B50546A2
:10C2A00000F06CF900F06AF91D4C4E30217801293C
:10C2B00011D1014640310B46497B00290BD0A17CAE
:10C2C00022462A32002908D001296BD0022969D0E0
:10C2D00003297BD173E0002070BDD87BA84275D1C3
:10C2E000608BA18B884271D115700120A0746071A0
:10C2F0006CE057E0203E205345473A5443505F538B
:10C3000045525645525F4D4F44453A534F434B4F6C
:10C3100050454E0D0A000000300001460002014663
:10C32000BC00002034BE00009202002094020020D5
:10C3300096020020203E205345473A5443505F4325
:10C340004C49454E545F4D4F44453A534F434B4F34
:10C3500050454E0D0A000000203E205345473A410B
:10C3600054204D6F64650D0A000000005345473AA4
:10C370004154204D6F64650D0A000000203E20539B
:10C3800045473A4757204D6F64650D0A000000008D
:10C390005345473A4757204D6F64650D0A0000002A
:10C3A0001518002040184030C07BA8420BD1608B8C
:10C3B000A38B984207D25554491CA17406E0608BA8
:10C3C000A28B904202D20846FFF749FF002060830B
:10C3D000A07C70BD70B5044600F0D0F80546293544
:10C3E00000F0CCF80246687845320021012806D0DA
:10C3F000022807D0042805D0052812D102E02878A9
:10C4000002280ED15079012101280AD15948112C56
:10C4100002D0132C02D004E0012100E0002141737E
:10C420000021084670BD10B500F0A8F80446293474
:10C4300000F0A4F88E30407B01280FD14D490878D8
:10C4400001280BD1E07BA27B0002104306D0C87903
:10C45000002801D10120C8710020088410BD00B55A
:10C4600000224449030004F001FE05090B0D0704F6
:10C4700008000A634A638A63CA6300BD0A6300BD99
:10C480004A6300BD8A6300BD024600203949002A84
:10C4900007D0012A07D0022A07D0032A00D1C86B8F
:10C4A0007047086B7047486B7047886B7047F8B5EA
:10C4B00000F064F82F4C0646A07929362E4F00254F
:10C4C000002807D0E08BB84203D2E08B401CE08309
:10C4D00000E0E5832079002807D0208BB84203D202
:10C4E000208B401C208300E02583608BA18B884239
:10C4F00002D2608B401C6083607900280AD0608B78
:10C50000A18B884206D1A07C032811D0FFF7A7FE9B
:10C51000A5746571E079002811D0F07BB17B000231
:10C520000843218C884206D9208C401C208406E0D8
:10C530000120A070ECE72584E57101202072607A6B
:10C54000002805D0608CB84203D2608C401C608407
:10C55000F8BD6584F8BD0748C178002906D0C18AB6
:10C56000054A914202D2C18A491CC182012101744B
:10C5700070470000BC000020FFFF0000FE4870472D
:10C58000F8B5FD4EF920307000207070B0700125B4
:10C59000F570044630710F21701D03F016FD09225D
:10C5A000F6A1701D03F0B4FC35757575B475C02126
:10C5B0007177A822B2770B23EF48F3770226203059
:10C5C000067041708270C3700571FF2646718671D6
:10C5D000C671047245728572C1720273437303217E
:10C5E000E94A8173C11C0A73130A4B73431C1A7402
:10C5F000160A5E740C74260A4E74E44E1E75360AD2
:10C600005E750C75230A4B7544768476C476047780
:10C6100044778477C47720300570DD4B411C0B7064
:10C620001B0A4B70C11C0A70120A4A7044710C2616
:10C630008671C571047244728472C4720473457346
:10C640000A21183003F0C1FCCB480A214E3003F018
:10C65000BCFCC948082160308470C4700471417109
:10C660008171C17101723221093003F0AEFCC24800
:10C670002B218030C576047741778177C177BE4F13
:10C680000F20A037387000207870B81C0570290A78
:10C6900041703E71310A79710471210A41713C7215
:10C6A000BC49401E0172090A417201460A3100204C
:10C6B00003F01BFD50203874002078743846133086
:10C6C000BD741E21044603F080FC1322B2A1204653
:10C6D00003F01EFC384631302821044603F075FC77
:10C6E0002022B2A1204603F013FCF8BD10B5FEF7DE
:10C6F000A7FCF923A04A0021012001F0E5FC9E4C93
:10C70000607821780002084302D0B049884207D1FE
:10C71000FFF736FFF923984A0021012001F01BFDA5
:10C720009549012020318872207560750020A07520
:10C73000FEF787FC90494031487110BD10B5F923D0
:10C740008D4A0021012001F006FD10BD10B503F057
:10C75000DFFB10BD10B503F0DBFB10BD10B50446C8
:10C760000146854806221730FFF7F4FF824804226D
:10C77000A11D1D30FFF7EEFF7F48214604220E3138
:10C780002130FFF7E7FF7C48214604220A3125309B
:10C79000FFF7E0FF78482146042212316530FFF7A9
:10C7A000D9FF7548A17D6030012902D00121C170F7
:10C7B00010BD0021FBE710B56F4904460622173172
:10C7C000FFF7C4FF6C4904221D31A01DFFF7BEFF17
:10C7D00069492046042221310E30FFF7B7FF664930
:10C7E0002046042225310A30FFF7B0FF6249204677
:10C7F000042265311230FFF7A9FF5F486030C0782E
:10C80000002801D0022000E00120A07510BD30B545
:10C8100089B0594D03A90120FCF770F96846427CA4
:10C82000017CC07B6B4607C36846837B427B017BF0
:10C8300067A002F06BFF28462330417B007B090292
:10C8400001436846407D009001916846037DC27CAB
:10C85000817C69A002F05AFF6846407F00906846DC
:10C86000037FC27E817E6DA002F050FF6846407E4D
:10C8700000906846037EC27D817D6EA002F046FF77
:10C8800008A84078009008A803786846C27F817F96
:10C890006EA002F03BFF2C462034607A01282DD098
:10C8A0006420415D601C0129417C0FD0027C08029C
:10C8B000A17B104301900091637B227BE17A69A008
:10C8C00002F024FF607A032809D017E00A02007CF6
:10C8D0002946024369316EA002F018FF0EE0E07AAB
:10C8E000002808D1207B002805D1607B002802D1D8
:10C8F000A07B002807D070A002F008FF6DA002F016
:10C9000005FF09B030BD71A0F6E710B51A4C7448A8
:10C91000E17DFBF785F87248217E401EFBF780F829
:10C920006F48617E801EFBF77BF86D48A17EC01EBC
:10C93000FBF776F86A48E17E001DFBF771F868485E
:10C94000217FC01CFBF76CF810BD10B50A4C86B0F7
:10C950002146062217316846FFF7F8FE214601A856
:10C9600004221D310230FFF7F1FE2146042221315D
:10C9700003A80230B6E000001C13002057495A37C4
:10C9800035304A520000000088130000B80B000048
:10C99000581B000052C300006465766963652E77FA
:10C9A000697A77696B692E6E657400002F77697AF2
:10C9B00037353073722F66772F5737353030785FC1
:10C9C0005332455F4170702E62696E00FFFF0000B8
:10C9D0002023204D41433A20253032583A25303229
:10C9E000583A253032583A253032583A25303258A4
:10C9F0003A253032580D0A002023204950203A2091
:10CA000025642E25642E25642E2564202F20506F4A
:10CA100072743A2025640D0A00000000202320478C
:10CA200057203A2025642E25642E25642E25640D7A
:10CA30000A000000202320534E203A2025642E2592
:10CA4000642E25642E25640D0A0000002023204456
:10CA50004E533A2025642E25642E25642E25640D20
:10CA60000A00000020232044657374696E617469B4
:10CA70006F6E2049503A2025642E25642E25642EA1
:10CA80002564202F20506F72743A2025640D0A000F
:10CA900020232044657374696E6174696F6E20444D
:10CAA0006F6D61696E3A202573202F20506F72746C
:10CAB0003A2025640D0A00002023232055445020ED
:10CAC000313A31204D6F64650D0A00002023232088
:10CAD00055445020313A4E204D6F64650D0A0000D8
